:100000000C942A000C9447000C9447000C94470071
:100010000C9447000C946C020C943F020C94470023
:100020000C9447000C9447000C9447000C94470034
:100030000C9447000C9447000C9447000C94470024
:100040000C9447000C9447000C9447000C94470014
:100050000C94470011241FBECFE5D4E0DEBFCDBF16
:1000600010E0A0E6B0E0E4E0F8E002C005900D92F8
:10007000AE37B107D9F720E0AEE7B0E001C01D927E
:10008000AF38B207E1F70E9418020C9400040C94F8
:100090000000613031F138F0623009F440C0633063
:1000A00009F45BC00895413061F44BB321E030E0C6
:1000B000B90102C0660F771F8A95E2F7CB01842B46
:1000C0000EC0411167C04BB321E030E0B90102C05E
:1000D000660F771F8A95E2F7CB01809584238BBB4F
:1000E0000895413061F448B321E030E0B90102C025
:1000F000660F771F8A95E2F7CB01842B0EC0411162
:1001000049C048B321E030E0B90102C0660F771F53
:100110008A95E2F7CB018095842388BB089541300E
:1001200061F445B321E030E0B90102C0660F771FEA
:100130008A95E2F7CB01842B0EC041112BC045B349
:1001400021E030E0B90102C0660F771F8A95E2F71F
:10015000CB018095842385BB0895413061F442B37F
:1001600021E030E0B90102C0660F771F8A95E2F7FF
:10017000CB01842B0EC041110DC042B321E030E011
:10018000B90102C0660F771F8A95E2F7CB0180950F
:10019000842382BB089520E030E02817390739F026
:1001A00045E04A95F1F700002F5F3F4FF6CF0895E5
:1001B000CF93C82F88B38F709C2F907F892B88BBDB
:1001C00041E061E080E00E94490040E061E081E0C0
:1001D0000E94490041E061E082E00E94490081E024
:1001E00090E00E94CB0040E061E082E00E94490084
:1001F00084E190E00E94CB0088B3282F2F7030E17B
:10020000C39FC0011124822B88BB41E061E082E0E2
:100210000E94490081E090E00E94CB0040E061E054
:1002200082E00E94490088EC90E0CF910C94CB00D2
:10023000CF93DF93EC018991882319F00E94D800B5
:10024000FACFDF91CF910895CF93C82F88B38F70E5
:100250009C2F907F892B88BB40E061E080E00E946A
:10026000490040E061E081E00E94490041E061E036
:1002700082E00E94490081E090E00E94CB0040E0D3
:1002800061E082E00E94490084E190E00E94CB009E
:1002900088B3282F2F7030E1C39FC0011124822B17
:1002A00088BB41E061E082E00E94490081E090E08B
:1002B0000E94CB0040E061E082E00E94490088ECAF
:1002C00090E0CF910C94CB00613011F4815803C0C1
:1002D000623019F481540C942401089520E030E038
:1002E0002817390749F0EFE9FFE03197F1F700C02F
:1002F00000002F5F3F4FF4CF089581E00E9424015A
:1003000085E090E00C946E0187B3876087BB87B36C
:10031000806F87BB84E190E00E946E0140E061E065
:1003200082E00E94490083E30E94240182E30E944C
:10033000240188E20E9424018CE00E9424010E9492
:100340007D0186E00E94240188EC90E00C94CB00B3
:1003500008B605FEFDCF0E94AA0290938800809304
:10036000870088B7806288BF08B605FEFDCF0E946F
:10037000AA0290938A008093890088B7806288BF20
:100380000895E7E8F0E06281738180819181681BC4
:10039000790B80E090E00E9450039B01AC0160E08B
:1003A00074E284E79BE40E94AF020E942103089557
:1003B000CF92DF92EF92FF92CF93DF93C6E8D0E027
:1003C0002AE0C22ED12CE12CF12CA70196010E942B
:1003D000DE03605D6A93B901CA0120E0CE37D2071F
:1003E000A1F78EE790E0DF91CF91FF90EF90DF9043
:1003F000CF900895CF92DF92EF92FF926B017C0134
:1004000062E081E00E946401C701B6010E94D80148
:100410000E9418012FEF81EE94E02150804090401F
:10042000E1F700C00000FF90EF90DF90CF900895BB
:100430000E94840180E690E00E9418012FEF87EA75
:1004400091E6215080409040E1F700C000000E94FA
:100450007D012FEF87EA91E6215080409040E1F73F
:1004600000C0000081E790E00E9418010E949902FC
:100470000E94A8010E94C1010E94FA01F9CF1F92B7
:100480000F920FB60F9211242F933F934F935F93C8
:100490006F937F938F939F93AF93BF93EF93FF934C
:1004A00080918D0090918E00892B29F0E0918D0034
:1004B000F0918E000995FF91EF91BF91AF919F91BF
:1004C0008F917F916F915F914F913F912F910F90FD
:1004D0000FBE0F901F9018951F920F920FB60F929C
:1004E00011242F933F934F935F936F937F938F9339
:1004F0009F93AF93BF93EF93FF9380918B00909165
:100500008C00892B29F0E0918B00F0918C000995EB
:10051000FF91EF91BF91AF919F918F917F916F91DB
:100520005F914F913F912F910F900FBE0F901F90B1
:1005300018951FBC8EB580648EBD8EB580688EBD4B
:100540008EB581608EBD8EB58D7F8EBD8EB58B7F55
:100550008EBD089586B527B590E0922B08950E9430
:10056000C3020C94A4030E949D0358F00E949603BA
:1005700040F029F45F3F29F00C948D0351110C9445
:10058000D8030C9493030E94B50368F39923B1F345
:10059000552391F3951B550BBB27AA2762177307A9
:1005A000840738F09F5F5F4F220F331F441FAA1F3D
:1005B000A9F335D00E2E3AF0E0E832D091505040F9
:1005C000E695001CCAF72BD0FE2F29D0660F771FA7
:1005D000881FBB1F261737074807AB07B0E809F08D
:1005E000BB0B802DBF01FF2793585F4F3AF09E3F12
:1005F000510578F00C948D030C94D8035F3FE4F31D
:10060000983ED4F3869577956795B795F7959F5F54
:10061000C9F7880F911D9695879597F90895E1E0A0
:10062000660F771F881FBB1F621773078407BA07FF
:1006300020F0621B730B840BBA0BEE1F88F7E0955A
:1006400008950E94BD0388F09F5798F0B92F99270D
:10065000B751B0F0E1F0660F771F881F991F1AF0AD
:10066000BA95C9F714C0B13091F00E94D703B1E038
:1006700008950C94D703672F782F8827B85F39F037
:10068000B93FCCF3869577956795B395D9F73EF446
:1006900090958095709561957F4F8F4F9F4F0895EE
:1006A000E89409C097FB3EF490958095709561950C
:1006B0007F4F8F4F9F4F9923A9F0F92F96E9BB27C2
:1006C0009395F695879577956795B795F111F8CF3E
:1006D000FAF4BB0F11F460FF1BC06F5F7F4F8F4FA9
:1006E0009F4F16C0882311F096E911C0772321F09F
:1006F0009EE8872F762F05C0662371F096E8862F37
:1007000070E060E02AF09A95660F771F881FDAF78D
:10071000880F9695879597F9089597F99F6780E8D0
:1007200070E060E008959FEF80EC089500240A9443
:100730001616170618060906089500240A941216BC
:100740001306140605060895092E0394000C11F4EF
:10075000882352F0BB0F40F4BF2B11F460FF04C09C
:100760006F5F7F4F8F4F9F4F089557FD9058440FF5
:10077000551F59F05F3F71F04795880F97FB991F00
:1007800061F09F3F79F087950895121613061406BD
:10079000551FF2CF4695F1DF08C01616170618064A
:1007A000991FF1CF86957105610508940895E89425
:1007B000BB2766277727CB0197F90895A1E21A2E68
:1007C000AA1BBB1BFD010DC0AA1FBB1FEE1FFF1FF5
:1007D000A217B307E407F50720F0A21BB30BE40B45
:1007E000F50B661F771F881F991F1A9469F760958C
:1007F0007095809590959B01AC01BD01CF01089546
:04080000F894FFCF9A
:100804004672657175656E6379204D6574657220F5
:0E081400004672657175656E6379203D2000A7
:00000001FF
