S01700004672657175656E6379204D657465722E737265633E
S11300000C942A000C9447000C9447000C9447006D
S11300100C9447000C9489020C945C020C944700E5
S11300200C9447000C9447000C9447000C94470030
S11300300C9447000C9447000C9447000C94470020
S11300400C9447000C9447000C9447000C94470010
S11300500C94470011241FBECFE5D4E0DEBFCDBF12
S113006010E0A0E6B0E0E8E1F8E002C005900D92EF
S1130070AE37B107D9F720E0AEE7B0E001C01D927A
S1130080AF38B207E1F70E9435020C940A040C94CD
S11300900000613039F138F0623009F442C0633055
S11300A009F45EC00895413069F44BB321E030E0B7
S11300B0B90102C0660F771F8A95E2F7CB01842B42
S11300C08BBB089541116AC04BB321E030E0B90104
S11300D002C0660F771F8A95E2F7CB0180958423CF
S11300E08BBB0895413069F448B321E030E0B90195
S11300F002C0660F771F8A95E2F7CB01842B88BB79
S1130100089541114BC048B321E030E0B90102C069
S1130110660F771F8A95E2F7CB018095842388BB0D
S11301200895413069F445B321E030E0B90102C0DB
S1130130660F771F8A95E2F7CB01842B85BB089560
S113014041112CC045B321E030E0B90102C0660F73
S1130150771F8A95E2F7CB018095842385BB0895A8
S1130160413069F442B321E030E0B90102C0660FC6
S1130170771F8A95E2F7CB01842B82BB0895411146
S11301800DC042B321E030E0B90102C0660F771F11
S11301908A95E2F7CB018095842382BB089500976A
S11301A059F020E030E045E04A95F1F700002F5F78
S11301B03F4F82179307B9F70895CF93C82F88B399
S11301C08F709C2F907F892B88BB41E061E080E099
S11301D00E94490040E061E081E00E94490041E062
S11301E061E082E00E94490081E090E00E94CF003B
S11301F040E061E082E00E94490084E190E00E94D6
S1130200CF0088B3282F2F7030E1C39FC001112481
S1130210822B88BB41E061E082E00E94490081E0DA
S113022090E00E94CF0040E061E082E00E9449003B
S113023088EC90E00E94CF00CF910895CF93DF9394
S1130240EC018881882331F021960E94DD00899198
S11302508111FBCFDF91CF910895CF93C82F88B33D
S11302608F709C2F907F892B88BB40E061E080E0F9
S11302700E94490040E061E081E00E94490041E0C1
S113028061E082E00E94490081E090E00E94CF009A
S113029040E061E082E00E94490084E190E00E9435
S11302A0CF0088B3282F2F7030E1C39FC0011124E1
S11302B0822B88BB41E061E082E00E94490081E03A
S11302C090E00E94CF0040E061E082E00E9449009B
S11302D088EC90E00E94CF00CF910895613021F422
S11302E081580E942D010895623019F481540E94AE
S11302F02D010895009769F020E030E0EFE9FFE078
S11303003197F1F700C000002F5F3F4F821793072A
S1130310A9F7089581E00E942D0185E090E00E94F4
S11303207A01089587B3876087BB87B3806F87BBE3
S113033084E190E00E947A0140E061E082E00E9462
S1130340490083E30E942D0182E30E942D0188E28B
S11303500E942D018CE00E942D010E948A0186E0FA
S11303600E942D0188EC90E00E94CF00089508B609
S113037005FEFDCF0E94C7029093880080938700FA
S113038088B7806288BF08B605FEFDCF0E94C70209
S113039090938A008093890088B7806288BF08950B
S11303A0E7E8F0E06281738180819181681B790BB9
S11303B080E090E00E946D039B01AC0160E678E66A
S11303C086E69BE40E94CC020E943E03CB01089582
S11303D0CF93DF93AC01E6E8F0E0CEE7D0E09A01FA
S11303E0ADECBCEC0E94FB0396958795969587959A
S11303F0969587959C01220F331F880F991F880FAC
S1130400991F880F991F820F931F9A01281B390B7C
S1130410C901805D82939A010E94FB03AC01569549
S113042047955695479556954795EC17FD07B9F6A8
S11304308EE790E0DF91CF910895CF93DF93EC01A5
S113044062E081E00E946E01CE010E94E8010E94F8
S11304501E012FEA8BE994E0215080409040E1F79F
S113046000C00000DF91CF9108950E94920180E6C0
S113047090E00E941E012FEB89E29CE52150804010
S11304809040E1F700C000000E948A012FEB89E24E
S11304909CE5215080409040E1F700C0000081E7D6
S11304A090E00E941E010E94B6020E94B7010E94C1
S11304B0D0010E941D02F9CF1F920F920FB60F9226
S11304C011242F933F934F935F936F937F938F9355
S11304D09F93AF93BF93EF93FF9380918D0090917F
S11304E08E00892B29F0E0918D00F0918E00099502
S11304F0FF91EF91BF91AF919F918F917F916F91F8
S11305005F914F913F912F910F900FBE0F901F90CD
S113051018951F920F920FB60F9211242F933F93A9
S11305204F935F936F937F938F939F93AF93BF93F7
S1130530EF93FF9380918B0090918C00892B29F08D
S1130540E0918B00F0918C000995FF91EF91BF91A0
S1130550AF919F918F917F916F915F914F913F9157
S11305602F910F900FBE0F901F9018951FBC8EB542
S113057080648EBD8EB580688EBD8EB581608EBD63
S11305808EB58D7F8EBD8EB58B7F8EBD089586B55D
S113059027B590E0922B08950E94E0020C94C103C9
S11305A00E94BA0358F00E94B30340F029F45F3F5D
S11305B029F00C94AA0351110C94F5030C94B00384
S11305C00E94D20368F39923B1F3552391F3951B49
S11305D0550BBB27AA2762177307840738F09F5F60
S11305E05F4F220F331F441FAA1FA9F335D00E2ECD
S11305F03AF0E0E832D091505040E695001CCAF73A
S11306002BD0FE2F29D0660F771F881FBB1F2617FC
S113061037074807AB07B0E809F0BB0B802DBF01D3
S1130620FF2793585F4F3AF09E3F510578F00C94A2
S1130630AA030C94F5035F3FE4F3983ED4F3869544
S113064077956795B795F7959F5FC9F7880F911DC3
S11306509695879597F90895E1E0660F771F881FAF
S1130660BB1F621773078407BA0720F0621B730B62
S1130670840BBA0BEE1F88F7E09508950E94DA0305
S113068088F09F5798F0B92F9927B751B0F0E1F04F
S1130690660F771F881F991F1AF0BA95C9F714C0FF
S11306A0B13091F00E94F403B1E008950C94F40386
S11306B0672F782F8827B85F39F0B93FCCF3869538
S11306C077956795B395D9F73EF490958095709595
S11306D061957F4F8F4F9F4F0895E89409C097FB12
S11306E03EF490958095709561957F4F8F4F9F4F05
S11306F09923A9F0F92F96E9BB279395F695879549
S113070077956795B795F111F8CFFAF4BB0F11F40B
S113071060FF1BC06F5F7F4F8F4F9F4F16C08823B2
S113072011F096E911C0772321F09EE8872F762FE8
S113073005C0662371F096E8862F70E060E02AF029
S11307409A95660F771F881FDAF7880F9695879515
S113075097F9089597F99F6780E870E060E008953D
S11307609FEF80EC089500240A94161617061806C5
S11307700906089500240A941216130614060506A1
S11307800895092E0394000C11F4882352F0BB0F32
S113079040F4BF2B11F460FF04C06F5F7F4F8F4F95
S11307A09F4F089557FD9058440F551F59F05F3FD0
S11307B071F04795880F97FB991F61F09F3F79F07F
S11307C087950895121613061406551FF2CF469501
S11307D0F1DF08C0161617061806991FF1CF869583
S11307E07105610508940895E894BB276627772767
S11307F0CB0197F90895A29FB001B39FC001A39FB5
S1130800700D811D1124911DB29F700D811D112445
S10B0810911D0895F894FFCF37
S11308184672657175656E6379204D6574657220DD
S1110828004672657175656E6379203D20008F
S9030000FC
